:020000040800F2
:10000000003000207D210008211F0008271F000864
:100010002D1F0008331F0008391F000800000000D2
:100020000000000000000000000000003F1F00086A
:100030004D1F0008000000005B1F0008691F00083A
:10004000CD210008CD210008CD210008CD210008D8
:10005000CD210008CD210008CD210008CD210008C8
:10006000CD210008CD210008CD210008CD210008B8
:10007000CD210008CD210008CD210008CD210008A8
:10008000CD210008CD210008CD210008CD21000898
:10009000CD210008CD210008CD210008CD21000888
:1000A000CD210008751F0008CD210008CD210008D2
:1000B000911F0008A51F000800000000CD210008C6
:1000C000CD2100080000000000000000CD21000844
:1000D00000000000CD210008CD210008CD2100083E
:1000E000CD210008CD210008000000000000000024
:1000F0000000000000000000000000000000000000
:1001000000000000000000000000000000000000EF
:100110000000000000000000B91F0008CD21000809
:1001200000000000000000000000000000000000CF
:1001300000000000000000000000000000000000BF
:10014000CD210008CD2100080000000000000000C3
:10015000000000000000000000000000000000009F
:10016000000000000000000000000000000000008F
:10017000000000000000000000000000000000007F
:0801800000000000CD21000881
:1001900010B5054C237833B9044B13B10448AFF3C1
:1001A00000800123237010BDD40100200000000056
:1001B000D098000808B5034B1BB103490348AFF3BF
:1001C000008008BD00000000D8010020D098000881
:1001D00001F0FF01102A2BDB10F0070F08D010F8F8
:1001E000013B013A8B422DD010F0070F42B3F6D1FC
:1001F000F0B441EA012141EA014122F007047FF015
:1002000000070023F0E80256083C85EA010586EA6B
:10021000010685FA47F5A3FA87F586FA47F6A5FAA7
:1002200087F68EB9EED1F0BC01F0FF0102F00702B3
:1002300032B110F8013B013A83EA010313B1F8D15E
:100240000020704701387047002D06BF354603383F
:10025000073815F0010F07D1013015F4807F02BF78
:10026000013015F4C03F0130F0BC0138704700BFC9
:10027000034613F8012B002AFBD1181A01387047E6
:1002800081F0004102E000BF83F0004330B54FEA47
:1002900041044FEA430594EA050F08BF90EA020FB4
:1002A0001FBF54EA000C55EA020C7FEA645C7FEA47
:1002B000655C00F0E2804FEA5454D4EB5555B8BF6A
:1002C0006D420CDD2C4480EA020281EA030382EADB
:1002D000000083EA010180EA020281EA0303362D6D
:1002E00088BF30BD11F0004F4FEA01314FF4801C40
:1002F0004CEA113102D0404261EB410113F0004F52
:100300004FEA03334CEA133302D0524263EB430308
:1003100094EA050F00F0A780A4F10104D5F1200EA6
:100320000DDB02FA0EFC22FA05F2801841F1000101
:1003300003FA0EF2801843FA05F359410EE0A5F1D5
:1003400020050EF1200E012A03FA0EFC28BF4CF006
:10035000020C43FA05F3C01851EBE37101F00045BC
:1003600007D54FF0000EDCF1000C7EEB00006EEBC9
:100370000101B1F5801F1BD3B1F5001F0CD3490853
:100380005FEA30004FEA3C0C04F101044FEA4452AA
:1003900012F5800F80F09A80BCF1004F08BF5FEA31
:1003A000500C50F1000041EB045141EA050130BD11
:1003B0005FEA4C0C404141EB0101013C28BFB1F523
:1003C000801FE9D291F0000F04BF01460020B1FA6E
:1003D00081F308BF2033A3F10B03B3F120020CDA41
:1003E0000C3208DD02F1140CC2F10C0201FA0CF01F
:1003F00021FA02F10CE002F11402D8BFC2F1200C84
:1004000001FA02F120FA0CFCDCBF41EA0C01904039
:10041000E41AA2BF01EB0451294330BD6FEA040482
:100420001F3C1CDA0C340EDC04F11404C4F120026D
:1004300020FA04F001FA02F340EA030021FA04F37F
:1004400045EA030130BDC4F10C04C4F1200220FAD6
:1004500002F001FA04F340EA0300294630BD21FA14
:1004600004F0294630BD94F0000F83F4801306BFDA
:1004700081F480110134013D4EE77FEA645C18BFCE
:100480007FEA655C29D094EA050F08BF90EA020F65
:1004900005D054EA000C04BF1946104630BD91EA5D
:1004A000030F1EBF0021002030BD5FEA545C05D160
:1004B0004000494128BF41F0004130BD14F580049F
:1004C0003CBF01F5801130BD01F0004545F0FE4113
:1004D00041F470014FF0000030BD7FEA645C1ABF48
:1004E000194610467FEA655C1CBF0B46024650EA7F
:1004F000013406BF52EA033591EA030F41F40021AB
:1005000030BD00BF90F0000F04BF0021704730B530
:100510004FF4806404F132044FF000054FF0000105
:1005200050E700BF90F0000F04BF0021704730B5C6
:100530004FF4806404F1320410F0004548BF40429B
:100540004FF000013EE700BF42004FEAE2014FEAF0
:1005500031014FEA02701FBF12F07F4393F07F4FCB
:1005600081F06051704732F07F4208BF704793F0CE
:100570007F4F04BF41F40021704730B54FF46074E1
:1005800001F0004521F000411CE700BF50EA0102E4
:1005900008BF704730B54FF000050AE050EA01028D
:1005A00008BF704730B511F0004502D5404261EBFD
:1005B00041014FF4806404F132045FEA915C3FF43E
:1005C000D8AE4FF003025FEADC0C18BF03325FEADB
:1005D000DC0C18BF033202EBDC02C2F1200300FA8C
:1005E00003FC20FA02F001FA03FE40EA0E0021FAB1
:1005F00002F11444BDE600BF70B54FF0FF0C4CF49F
:10060000E06C1CEA11541DBF1CEA135594EA0C0F50
:1006100095EA0C0F00F0DEF82C4481EA030621EA8B
:100620004C5123EA4C5350EA013518BF52EA0335C6
:1006300041F4801143F4801338D0A0FB02CE4FF078
:100640000005E1FB02E506F00042E0FB03E54FF0A8
:100650000006E1FB03569CF0000F18BF4EF0010EA0
:10066000A4F1FF04B6F5007F64F5407404D25FEA9C
:100670004E0E6D4146EB060642EAC62141EA55514F
:100680004FEAC52040EA5E504FEACE2EB4F1FD0C91
:1006900088BFBCF5E06F1ED8BEF1004F08BF5FEA0F
:1006A000500E50F1000041EB045170BD06F00046C1
:1006B00046EA010140EA020081EA0301B4EB5C046E
:1006C000C2BFD4EB0C0541EA045170BD41F4801166
:1006D0004FF0000E013C00F3AB8014F1360FDEBF8B
:1006E000002001F0004170BDC4F10004203C35DA67
:1006F0000C341BDC04F11404C4F1200500FA05F3EA
:1007000020FA04F001FA05F240EA020001F000428A
:1007100021F0004110EBD37021FA04F642EB060100
:100720005EEA430E08BF20EAD37070BDC4F10C042A
:10073000C4F1200500FA04F320FA05F001FA04F2EE
:1007400040EA020001F0004110EBD37041F10001DA
:100750005EEA430E08BF20EAD37070BDC4F12005E5
:1007600000FA05F24EEA020E20FA04F301FA05F24D
:1007700043EA020321FA04F001F0004121FA04F2F5
:1007800020EA020000EBD3705EEA430E08BF20EAC5
:10079000D37070BD94F0000F0FD101F000464000FF
:1007A00041EB010111F4801F08BF013CF7D041EA81
:1007B000060195F0000F18BF704703F00046520085
:1007C00043EB030313F4801F08BF013DF7D043EA56
:1007D0000603704794EA0C0F0CEA135518BF95EA0C
:1007E0000C0F0CD050EA410618BF52EA4306D1D193
:1007F00081EA030101F000414FF0000070BD50EAB2
:10080000410606BF1046194652EA430619D094EA3B
:100810000C0F02D150EA013613D195EA0C0F05D125
:1008200052EA03361CBF104619460AD181EA030179
:1008300001F0004141F0FE4141F470014FF0000031
:1008400070BD41F0FE4141F4780170BD70B54FF0CC
:10085000FF0C4CF4E06C1CEA11541DBF1CEA13554C
:1008600094EA0C0F95EA0C0F00F0A7F8A4EB05042E
:1008700081EA030E52EA03354FEA013100F0888025
:100880004FEA03334FF0805545EA131343EA1263EE
:100890004FEA022245EA111545EA10654FEA0026A3
:1008A0000EF000419D4208BF964244F1FD0404F55C
:1008B000407402D25B084FEA3202B61A65EB0305B8
:1008C0005B084FEA32024FF480104FF4002CB6EB75
:1008D000020E75EB030E22BFB61A754640EA0C00F5
:1008E0005B084FEA3202B6EB020E75EB030E22BF35
:1008F000B61A754640EA5C005B084FEA3202B6EB76
:10090000020E75EB030E22BFB61A754640EA9C0034
:100910005B084FEA3202B6EB020E75EB030E22BF04
:10092000B61A754640EADC0055EA060E18D04FEAC2
:10093000051545EA16754FEA06164FEAC30343EA62
:1009400052734FEAC2025FEA1C1CC0D111F4801F2F
:100950000BD141EA00014FF000004FF0004CB6E728
:1009600011F4801F04BF01430020B4F1FD0C88BFC7
:10097000BCF5E06F3FF6AFAEB5EB030C04BFB6EBD2
:10098000020C5FEA500C50F1000041EB045170BDC5
:100990000EF0004E4EEA113114EB5C04C2BFD4EBF2
:1009A0000C0541EA045170BD41F480114FF0000E76
:1009B000013C90E645EA060E8DE60CEA135594EAF2
:1009C0000C0F08BF95EA0C0F3FF43BAF94EA0C0FF5
:1009D0000AD150EA01347FF434AF95EA0C0F7FF46A
:1009E00025AF104619462CE795EA0C0F06D152EABE
:1009F00003353FF4FDAE1046194622E750EA4106A2
:100A000018BF52EA43067FF4C5AE50EA41047FF4B2
:100A10000DAF52EA43057FF4EBAE12E74FF0FF3C17
:100A200006E000BF4FF0010C02E000BF4FF0010CE8
:100A30004DF804CD4FEA410C7FEA6C5C4FEA430C61
:100A400018BF7FEA6C5C1BD001B050EA410C0CBFB0
:100A500052EA430C91EA030F02BF90EA020F002012
:100A6000704710F1000F91EA030F58BF994208BF79
:100A700090422CBFD8176FEAE37040F00100704736
:100A80004FEA410C7FEA6C5C02D150EA013C07D18D
:100A90004FEA430C7FEA6C5CD6D152EA033CD3D0D8
:100AA0005DF8040B704700BF8446104662468C46D2
:100AB0001946634600E000BF01B5FFF7B7FF002805
:100AC00048BF10F1000F01BD4DF808EDFFF7F4FF2E
:100AD0000CBF012000205DF808FB00BF4DF808EDB9
:100AE000FFF7EAFF34BF012000205DF808FB00BFDC
:100AF0004DF808EDFFF7E0FF94BF012000205DF8FE
:100B000008FB00BF4DF808EDFFF7CEFF94BF0120B2
:100B100000205DF808FB00BF4DF808EDFFF7C4FFAB
:100B200034BF012000205DF808FB00BF4FEA410CF4
:100B30007FEA6C5C02D150EA013C0AD14FEA430CD7
:100B40007FEA6C5C02D152EA033C02D14FF0000014
:100B500070474FF0010070474FEA410212F5001252
:100B600015D211D56FF47873B3EB625212D94FEAF4
:100B7000C12343F0004343EA505311F0004F23FADE
:100B800002F018BF404270474FF00000704750EA33
:100B9000013005D111F0004008BF6FF000407047F0
:100BA0004FF00000704700BF4A0011D212F500124A
:100BB00011D20DD56FF47873B3EB62520ED44FEAB5
:100BC000C12343F0004343EA505323FA02F0704735
:100BD0004FF00000704750EA013002D14FF0FF3073
:100BE00070474FF00000704780B582B000AF78606A
:100BF000391D4FF0FF330122034805F0B1FC7B683B
:100C000018460837BD4680BD0C040020F0B58FB0F3
:100C100006AF01F0DDFA00F0F3F900F0ADFD00F0F1
:100C2000E1FB00F055FC00F0FFFC00F0C7FC00F019
:100C300087FB00F043FA00F0F9FA00F06DFDB04BCD
:100C40001B689B680021184606F0F6FDAC4B1B683C
:100C50005B680021184606F0EFFD0023FB760122B9
:100C60008021A84802F038FEA74806F0DDFDFB7E93
:100C7000002B0CD100224FF4C0414FF0904002F005
:100C80002BFE002210219F4802F026FE3CE0FB7E56
:100C9000012B13D101224FF400514FF0904002F08C
:100CA0001BFE00224FF480414FF0904002F014FEF2
:100CB00000221021934802F00FFE25E0FB7E022B5C
:100CC00013D101224FF480414FF0904002F004FE16
:100CD00000224FF400514FF0904002F0FDFD002241
:100CE0001021884802F0F8FD0EE0FB7E032B0BD1AB
:100CF00001221021834802F0EFFD00224FF4C04191
:100D00004FF0904002F0E8FD4FF400414FF090406A
:100D100002F0CAFD0346002B14D1642001F0BEFA94
:100D200000BF4FF400414FF0904002F0BDFD03467C
:100D3000002BF6D0FB7E0133FB76FB7E032B01D923
:100D40000023FB764FF480714FF0904002F0ACFD31
:100D50000346002B0FD1642001F0A0FA00BF4FF42E
:100D600080714FF0904002F09FFD0346002BF6D0BB
:100D7000FB7E013BFB764FF400614FF0904002F0A8
:100D800093FD0346002B7FF472AF642001F086FAD6
:100D900000BF4FF400614FF0904002F085FD034624
:100DA000002BF6D0FB7E002B40F0F880FB8B062B4F
:100DB00068D801A252F823F0D50D0008DD0D000817
:100DC000F90D0008150E0008310E00084D0E000840
:100DD000690E00084D4801F0CDFC53E04B4801F08E
:100DE00013FC0A21494801F0FBFC484801F0C6FD0C
:100DF00003469BB2FB8245E0444801F005FC0A2112
:100E0000424801F0EDFC414801F0B8FD03469BB2B9
:100E1000BB8237E03D4801F0F7FB0A213B4801F077
:100E2000DFFC3A4801F0AAFD03469BB23B8229E071
:100E3000364801F0E9FB6421344801F0D1FC334825
:100E400001F09CFD03469BB2FB811BE02F4801F0A3
:100E5000DBFB0A212D4801F0C3FC2C4801F08EFD7C
:100E600003469BB2FB800DE0284801F0CDFB0A2130
:100E7000264801F0B5FC254801F080FD03469BB2F1
:100E8000BB8000BFBB8B042B52D801A252F823F0C9
:100E9000A50E0008AD0E0008C90E0008E50E0008FA
:100EA000150F00081A4801F065FC41E0184801F0F0
:100EB000ABFB0A21164801F093FC154801F05EFDDA
:100EC00003469BB27B8233E0114801F09DFB0A216F
:100ED0000F4801F085FC0E4801F050FD03469BB21F
:100EE000BB8125E00A4801F08FFB0A21084801F088
:100EF00077FC074801F042FD03469BB27B8117E077
:100F00006400002000040048E8980008F001002078
:100F100040020020344801F077FB0A21324801F0FA
:100F20005FFC314801F02AFD03469BB23B8100BFC4
:100F3000FB8B5A1C2D4B83FB021313449910D317C0
:100F4000C91A0B46DB005B1AD11A0B46FB83BB8B1D
:100F50005A1C274B83FB02135910D317C91A0B468F
:100F60009B000B44D11A0B46BB83FB88B3F57A7FF9
:100F700004D204211F4804F005FA02E0642000F0C6
:100F800081FDBB8AB3F57A7F04D204211A4804F0AC
:100F9000F9F96CE6642000F08FFD68E6FB7E012B1A
:100FA00002D100F0DFFC62E6FB7E022B3FF45FAE75
:100FB000FB7E032B7FF45BAEFB881D463B891E4600
:100FC0007B899C46BB89FA89398A788ABC8A0494D1
:100FD00003900291019200936346324629460748E6
:100FE00006F0BCFB43E600BF400200209324499278
:100FF00067666666DC02002028030020F09800087F
:1010000080B596B000AF07F13003282200211846C2
:1010100006F0A0FD07F11C0300221A605A609A60D6
:10102000DA601A613B1D00221A605A609A60DA6029
:101030001A615A6102233B6301233B6410237B64E2
:101040000223FB6400233B654FF460137B6507F1CB
:101050003003184602F058FC0346002B01D000F084
:1010600045FD0F23FB6102233B6200237B624FF4AB
:101070008063BB620023FB6207F11C030221184658
:1010800003F080FC0346002B01D000F02FFD41F25D
:1010900081037B600023FB604FF480737B6100233E
:1010A000BB613B1D184603F0A3FE0346002B01D095
:1010B00000F01CFD00BF5837BD4680BD80B58AB02A
:1010C00000AF07F11C0300221A605A609A603B1DB2
:1010D00000221A605A609A60DA601A615A61524BB3
:1010E0004FF0A0421A60504B00225A604E4B002233
:1010F0009A604D4B01221A614B4B00225A764A4BA3
:10110000012283F82020484B01225A62464B0022DC
:10111000DA62454B01229A62434B0022DA60424B6D
:101120000622DA61404B002283F830203E4B042235
:101130005A613D4B00221A763B4B00225A633A48D3
:1011400001F0D0F80346002B01D000F0CFFC0023C3
:10115000FB6107F11C031946334801F0DBFE03462F
:10116000002B01D000F0C2FC01237B600123BB6097
:1011700000233B610023FB6000237B610023BB61F4
:101180003B1D1946284801F007FC0346002B01D0FF
:1011900000F0ACFC02237B600223BB603B1D1946C0
:1011A000214801F0F9FB0346002B01D000F09EFC22
:1011B00003237B600323BB603B1D19461A4801F0E3
:1011C000EBFB0346002B01D000F090FC04237B6076
:1011D0000423BB603B1D1946134801F0DDFB0346A9
:1011E000002B01D000F082FC0B237B600523BB6049
:1011F0003B1D19460C4801F0CFFB0346002B01D0E4
:1012000000F074FC0C237B600623BB603B1D194679
:10121000054801F0C1FB0346002B01D000F066FC3D
:1012200000BF2837BD4680BDF001002080B586B0E4
:1012300000AF3B4600221A605A609A60DA601A6179
:101240005A613D4B3D4A1A603B4B00225A603A4B73
:1012500000229A60384B01221A61374B00225A76DD
:10126000354B012283F82020334B01225A62324B46
:101270000022DA62304B01229A622F4B0022DA60A0
:101280002D4B0422DA612C4B002283F830202A4BAC
:1012900004225A61284B00221A76274B00225A63F7
:1012A000254801F01FF80346002B01D000F01EFC7A
:1012B00001233B6001237B600023FB600023BB60B4
:1012C00000233B6100237B613B4619461A4801F02D
:1012D00063FB0346002B01D000F008FC02233B60B7
:1012E00002237B603B461946134801F055FB034639
:1012F000002B01D000F0FAFB03233B6003237B604B
:101300003B4619460C4801F047FB0346002B01D031
:1013100000F0ECFB04233B6004237B603B46194652
:10132000054801F039FB0346002B01D000F0DEFB3D
:1013300000BF1837BD4680BD4002002000010050AC
:1013400080B588B000AF07F1100300221A605A6020
:101350009A60DA603B1D00221A605A609A601F4B47
:101360001F4A1A601D4B3F225A601C4B00229A6094
:101370001A4B0022DA60194B00221A61174B002227
:101380005A61164B00229A61144803F057FE034637
:10139000002B01D000F0AAFB4FF480533B6107F112
:1013A000100319460D4804F0AFFA0346002B01D094
:1013B00000F09CFB00237B600023BB600023FB60EC
:1013C0003B1D1946054804F079FF0346002B01D068
:1013D00000F08CFB00BF2037BD4680BD900200208E
:1013E000002C014080B58EB000AF07F12803002229
:1013F0001A605A609A60DA6007F11C0300221A60D2
:101400005A609A603B4600221A605A609A60DA601D
:101410001A615A619A612D4B4FF080421A602B4B32
:1014200000225A60294B00229A60284BFF22DA6082
:10143000264B00221A61254B00229A61234803F0B3
:10144000FDFD0346002B01D000F050FB4FF480530C
:10145000BB6207F1280319461C4804F055FA0346FD
:10146000002B01D000F042FB184803F03EFE03467B
:10147000002B01D000F03AFB0023FB6100237B62CC
:1014800007F11C031946114804F018FF0346002B0E
:1014900001D000F02BFB60233B6000237B60002326
:1014A000BB6000233B613B4604221946074804F019
:1014B00017F90346002B01D000F018FB034800F099
:1014C0006BFC00BF3837BD4680BD00BFDC0200208A
:1014D00080B58EB000AF07F1280300221A605A6071
:1014E0009A60DA6007F11C0300221A605A609A6061
:1014F0003B4600221A605A609A60DA601A615A61AB
:101500009A612C4B2C4A1A602A4B00225A60294BB4
:1015100000229A60274BFF22DA60264B00221A61D4
:10152000244B00229A61234803F088FD0346002BD8
:1015300001D000F0DBFA4FF48053BB6207F12803BF
:1015400019461C4804F0E0F90346002B01D000F0D6
:10155000CDFA184803F0C9FD0346002B01D000F076
:10156000C5FA0023FB6100237B6207F11C031946C7
:10157000104804F0A3FE0346002B01D000F0B6FA99
:1015800060233B6000237B600023BB6000233B6142
:101590003B4604221946074804F0A2F80346002BF4
:1015A00001D000F0A3FA034800F0F6FB00BF383783
:1015B000BD4680BD280300200004004080B584B0F3
:1015C00000AF3B1D00221A605A609A60144B154A06
:1015D0001A60134B3F225A60114B00229A60104B45
:1015E00040F2E732DA600E4B00229A610C4803F0B9
:1015F00025FD0346002B01D000F078FA00237B6024
:101600000023FB603B1D1946054804F057FE0346C6
:10161000002B01D000F06AFA00BF1037BD4680BD34
:10162000740300200010004080B592B000AF07F1B5
:101630002C0300221A605A609A60DA601A615A61BB
:101640009A613B462C220021184606F083FA304B63
:10165000304A1A602E4B3F225A602D4B00229A606E
:101660002B4B0022DA602A4B00221A61284B002201
:101670005A61274B00229A61254803F0DFFC03469C
:10168000002B01D000F032FA214803F02EFD034672
:10169000002B01D000F02AFA6023FB6200233B6399
:1016A00000237B630023BB630023FB6300233B64B5
:1016B00000237B6407F12C0300221946144804F030
:1016C0000FF80346002B01D000F010FA00233B6016
:1016D00000237B600023BB600023FB6000233B6191
:1016E0004FF400537B610023BB610023BB623B4688
:1016F0001946074804F050FE0346002B01D000F0C5
:10170000F5F9034800F048FB00BF4837BD4680BDEF
:10171000C00300200044014080B500AF144B154ABF
:101720001A60134B4FF416525A60114B00229A6004
:101730000F4B0022DA600E4B00221A610C4B0C2278
:101740005A610B4B00229A61094B0022DA61084B67
:1017500000221A62064B00225A62054804F0B2FECB
:101760000346002B01D000F0C1F900BF80BD00BFCF
:101770000C0400200038014080B588B000AF07F1AC
:101780000C0300221A605A609A60DA601A61484BB2
:101790005B69474A43F480035361454B5B6903F43B
:1017A0008003BB60BB68424B5B69414A43F4003332
:1017B00053613F4B5B6903F400337B607B683C4BB8
:1017C0005B693B4A43F480235361394B5B6903F403
:1017D00080233B603B6800220321364802F07CF8FE
:1017E00000224FF4C0414FF0904002F075F8002203
:1017F000D021314802F070F80323FB6001233B61E4
:1018000000237B610023BB6107F10C0319462948C3
:1018100001F0D8FE4FF48073FB6000233B6100238E
:101820007B6107F10C0319464FF0904001F0CAFEAE
:101830004FF40843FB6000233B6101237B6107F108
:101840000C0319464FF0904001F0BCFE4FF40053DA
:10185000FB6001233B6101237B610023BB6107F136
:101860000C0319464FF0904001F0ACFE4FF480435A
:10187000FB6001233B6100237B610023BB6107F117
:101880000C0319464FF0904001F09CFED023FB6002
:1018900001233B6100237B610023BB6107F10C0343
:1018A0001946054801F08EFE00BF2037BD4680BDB9
:1018B000001002400014004800040048000000002E
:1018C00090B585B000AF0346FB800B46BB80134646
:1018D0007B80FB881846FEF725FE02460B461FA1BB
:1018E000D1E90001FEF7B2FF02460B461046194649
:1018F000FFF75AF90346013BFB60174B1B68FA6878
:10190000013ADA62F868FEF7FDFD11A3D3E900237E
:10191000FEF772FE02460B460F490C681046194648
:10192000FFF742F90346636300210B4803F03EFCD6
:10193000BB88184600F0B2FC0021074803F022FDE6
:101940007B88184600F0AAFC00BF1437BD4690BD46
:101950009A9999999999C93FC00300200000000005
:1019600080842E4180B500AF002240F277114FF401
:101970003960FFF7A5FF00227D214FF44460FFF797
:101980009FFF00224FF4FA714FF45C60FFF798FF5D
:10199000002240F2771140F66F70FFF791FF0022AE
:1019A0007D2141F25310FFF78BFF00224FF4FA71B3
:1019B00041F25B20FFF784FF002240F277114FF4E1
:1019C0003960FFF77DFF00227D214FF44460FFF76F
:1019D00077FF00224FF4FA714FF45C60FFF770FF5D
:1019E000002240F2771140F66F70FFF769FF002286
:1019F0007D2141F25210FFF763FF00224FF4FA718C
:101A000041F25B20FFF75CFF002240F2771141F2C8
:101A10005310FFF755FF00227D2140F66F70FFF74E
:101A20004FFF00224FF4FA714FF4DC50FFF748FFEC
:101A3000002240F277114FF43960FFF741FF002296
:101A40007D214FF44460FFF73BFF00224FF4FA7111
:101A50004FF45C60FFF734FF002240F277114FF43F
:101A60003960FFF72DFF00227D2140F64D20FFF762
:101A700027FF00224FF47A7140F62D10FFF720FF68
:101A800000BF80BD80B582B000AF0346FB7101226C
:101A90004021074801F020FF064B1B68FA799A6342
:101AA0000421044803F082FB00BF0837BD4680BD17
:101AB000000400482803002080B582B000AF034630
:101AC000FB7101220121074801F006FF064B1B684C
:101AD000FA799A630421044803F068FB00BF0837D1
:101AE000BD4680BD00140048DC02002080B400AF79
:101AF00072B600BFFEE7000080B483B000AF0F4BAA
:101B00009B690E4A43F0010393610C4B9B6903F000
:101B100001037B607B68094BDB69084A43F0805313
:101B2000D361064BDB6903F080533B603B6800BF29
:101B30000C37BD465DF8047B704700BF00100240C3
:101B400080B58CB000AF786007F11C0300221A60EA
:101B50005A609A60DA601A617B681B68B3F1A04F23
:101B600046D13F4B1B6801333D4A13603C4B1B6819
:101B7000012B0BD13B4B5B693A4A43F080535361D5
:101B8000384B5B6903F08053BB61BB69354B5B69C4
:101B9000344A43F400335361324B5B6903F400333E
:101BA0007B617B692F4B5B692E4A43F48023536131
:101BB0002C4B5B6903F480233B613B690F23FB6182
:101BC00003233B6200237B6207F11C0319464FF09D
:101BD000904001F0F7FC0323FB6103233B620023E9
:101BE0007B6207F11C0319461F4801F0EBFC32E051
:101BF0007B681B681D4A93422DD1194B1B6801332A
:101C0000174A1360164B1B68012B0BD1154B5B69F0
:101C1000144A43F080535361124B5B6903F08053C5
:101C2000FB60FB680F4B5B690E4A43F40033536162
:101C30000C4B5B6903F40033BB60BB68F023FB61B2
:101C400003233B6200237B6207F11C0319464FF01C
:101C5000904001F0B7FC00BF3037BD4680BD00BFEB
:101C600094040020001002400004004800010050CD
:101C700080B588B000AF78607B681B68414A9342AA
:101C800014D1414B9B69404A43F4006393613E4B3E
:101C90009B6903F40063FB61FB69002200211920AA
:101CA00001F059FC192001F072FC66E07B681B68AA
:101CB000B3F1804F14D1344BDB69334A43F0010355
:101CC000D361314BDB6903F00103BB61BB690022C7
:101CD00000211C2001F03FFC1C2001F058FC4CE0CE
:101CE0007B681B68294A934214D1274BDB69264A3B
:101CF00043F00203D361244BDB6903F002037B61F1
:101D00007B69002200211D2001F025FC1D2001F02F
:101D10003EFC32E07B681B681D4A934214D11A4B8B
:101D2000DB69194A43F01003D361174BDB6903F0F9
:101D300010033B613B6900220021362001F00BFCBF
:101D4000362001F024FC18E07B681B68114A93429E
:101D500013D10D4B9B690C4A43F4003393610A4B3A
:101D60009B6903F40033FB60FB680022002119200B
:101D700001F0F1FB192001F00AFC00BF2037BD463D
:101D800080BD00BF002C0140001002400004004054
:101D9000001000400044014080B58AB000AF786078
:101DA00007F1140300221A605A609A60DA601A611F
:101DB0007B681B68B3F1804F1CD1334B5B69324A9F
:101DC00043F480235361304B5B6903F480233B6110
:101DD0003B6908237B610223BB610023FB61002375
:101DE0003B6201237B6207F114031946274801F087
:101DF000E9FB44E07B681B68254A93421CD1224BD7
:101E00005B69214A43F4802353611F4B5B6903F4F0
:101E10008023FB60FB6820237B610223BB610023DE
:101E2000FB6100233B6202237B6207F11403194626
:101E3000164801F0C7FB22E07B681B68154A9342F5
:101E40001DD1114B5B69104A43F4003353610E4BB3
:101E50005B6903F40033BB60BB684FF480537B6164
:101E60000223BB610023FB6100233B6201237B62F1
:101E700007F1140319464FF0904001F0A3FB00BF97
:101E80002837BD4680BD00BF001002400004004856
:101E9000000400400044014080B58AB000AF786083
:101EA00007F1140300221A605A609A60DA601A611E
:101EB0007B681B68184A934229D1184B9B69174AC3
:101EC00043F480439361154B9B6903F480433B616A
:101ED0003B69124B5B69114A43F4003353610F4B6A
:101EE0005B6903F40033FB60FB684FF4C0637B6104
:101EF0000223BB610023FB6103233B6207237B6258
:101F000007F1140319464FF0904001F05BFB00BF4E
:101F10002837BD4680BD00BF003801400010024098
:101F200080B400AFFEE780B400AFFEE780B400AF3E
:101F3000FEE780B400AFFEE780B400AFFEE780B4F8
:101F400000AF00BFBD465DF8047B704780B400AFB2
:101F500000BFBD465DF8047B704780B400AF00BF92
:101F6000BD465DF8047B704780B500AF00F076F9A0
:101F700000BF80BD80B500AF034803F091FA03486D
:101F800003F08EFA00BF80BD90020020C003002045
:101F900080B500AF024803F083FA00BF80BD00BFE8
:101FA000DC02002080B500AF024803F079FA00BFE0
:101FB00080BD00BF2803002080B500AF024803F0B9
:101FC0006FFA00BF80BD00BF7403002080B400AF73
:101FD00001231846BD465DF8047B704780B582B08A
:101FE00000AF7860396005F007FE034616221A60DC
:101FF0004FF0FF3318460837BD4680BD80B582B02C
:1020000000AF78604FF0FF317868FFF7E7FFFEE739
:1020100080B586B000AFF860B9607A6000237B615C
:102020000AE0AFF300800146BB685A1CBA60CAB22E
:102030001A707B6901337B617A697B689A42F0DBB5
:102040007B6818461837BD4680BD80B586B000AFA6
:10205000F860B9607A6000237B6109E0BB685A1CB4
:10206000BA601B781846FEF7BFFD7B6901337B61C0
:102070007A697B689A42F1DB7B6818461837BD465F
:1020800080BD80B483B000AF78604FF0FF33184656
:102090000C37BD465DF8047B704780B483B000AF59
:1020A000786039603B684FF400525A60002318464C
:1020B0000C37BD465DF8047B704780B483B000AF39
:1020C0007860012318460C37BD465DF8047B7047E5
:1020D00080B485B000AFF860B9607A60002318461C
:1020E0001437BD465DF8047B7047000080B586B0AC
:1020F00000AF7860144A154BD31A7B617B693B6152
:10210000134B1B68002B02D1114B124A1A60104B63
:102110001A687B6813443A699A4207D205F06CFD4D
:1021200003460C221A604FF0FF3309E0084B1B688E
:10213000FB60074B1A687B681344054A1360FB6811
:1021400018461837BD4680BD00300020000400004E
:1021500098040020F005002080B400AF064BD3F8AF
:102160008830054A43F47003C2F8883000BFBD468A
:102170005DF8047B704700BF00ED00E0DFF834D06D
:10218000FFF7EAFF0C480D490D4A002302E0D4583E
:10219000C4500433C4188C42F9D30A4A0A4C0023B1
:1021A00001E013600432A242FBD305F02BFDFEF7E1
:1021B0002DFDFEE70030002000000020D4010020AB
:1021C000CC9C0008D4010020EC050020FEE70000B4
:1021D00080B500AF084B1B68074A43F0100313603B
:1021E000032001F0ADF90F2000F008F8FFF784FCA0
:1021F0000023184680BD00BF0020024080B582B099
:1022000000AF7860124B1A68124B1B7819464FF4D6
:102210007A73B3FBF1F3B2FBF3F3184601F0C5F99F
:102220000346002B01D001230EE07B680F2B0AD858
:10223000002279684FF0FF3001F08DF9064A7B6883
:102240001360002300E0012318460837BD4680BD17
:1022500000000020080000200400002080B400AF2F
:10226000064B1B781A46064B1B681344044A13603E
:1022700000BFBD465DF8047B704700BF080000202A
:102280009C04002080B400AF034B1B681846BD4679
:102290005DF8047B704700BF9C04002080B584B0CB
:1022A00000AF7860FFF7EEFFB8607B68FB60FB680B
:1022B000B3F1FF3F05D00A4B1B781A46FB68134465
:1022C000FB6000BFFFF7DEFF0246BB68D31AFA6867
:1022D0009A42F7D800BF00BF1037BD4680BD00BF8F
:1022E0000800002080B59AB000AF7860002387F81E
:1022F000673000233B660023BB607B68002B01D165
:10230000012372E17B681B69002B7B681B6C03F067
:102310001003002B76D17B681B6C002B52D17B689D
:1023200000225A647B680022DA647B6800229A6487
:102330007B68002283F83C207868FFF701FC7B680B
:102340001B689B6803F08053002B3BD1786800F03A
:102350000BFF034687F867307B681B6C03F01003A4
:10236000002B2FD197F86730002B2BD17B681B6C8B
:1023700023F4885323F0020343F002027B681A64BB
:102380007B681B689A687B681B6822F040529A60E1
:102390007B681B689A687B681B6842F080529A6071
:1023A000944B1B68944AA2FB03239A0C13469B0090
:1023B00013445B00BB6002E0BB68013BBB60BB68D1
:1023C000002BF9D17B681B689B6803F08053002BBE
:1023D00007D07B681B689B6803F00053B3F1005F74
:1023E00010D17B681B6C23F0120343F010027B6852
:1023F0001A647B685B6C43F001027B685A640123BA
:1024000087F867307B681B6C03F01003002B40F0EB
:10241000DF8097F86730002B40F0DA807B681B681C
:102420009B6803F00403002B40F0D2807B681B6C98
:1024300023F4817343F002027B681A646F4BFB65DF
:102440007B681B68B3F1A04F02D16D4BFB6002E0CB
:102450004FF0A043FB607B681B689B6803F003039D
:10246000012B08D17B681B681B6803F00103012B5B
:1024700001D1012300E00023002B1CD1FB68002BBD
:1024800010D0FB689B6803F00303012B07D1FB68A6
:102490001B6803F00103012B01D1012300E000239D
:1024A000002B08D1FB6D9B6823F440327B685B688E
:1024B0001A43FB6D9A607B685B7E5B037A68526BA4
:1024C000012A02D04FF4805200E000221A437B68B8
:1024D000DB681A437B689B6813433A6E13433B6681
:1024E0007B6893F82030012B1BD17B685B7E002B2F
:1024F00009D17B685B6A013B5A043B6E134343F48A
:1025000080333B660DE07B681B6C23F0220343F0B5
:1025100020027B681A647B685B6C43F001027B6875
:102520005A647B689B6A012B07D07B689A6A7B6838
:10253000DB6A13433A6E13433B667B681B689B68F8
:1025400003F00C03002B14D17B681B68DB687A68EE
:10255000126823F4804323F00203D3607B681B7E60
:102560009A037B6893F830305B0013433A6E134351
:102570003B667B681B68DA68224B13407A681268F6
:10258000396E0B43D3607B681B69012B0CD17B68D0
:102590001B681B6B23F00F017B68DB695A1E7B688D
:1025A0001B680A431A6307E07B681B681A6B7B6829
:1025B0001B6822F00F021A637B6800225A647B6852
:1025C0001B6C23F0030343F001027B681A640AE0EA
:1025D0007B681B6C23F0120343F010027B681A64C3
:1025E000012387F8673097F8673018466837BD468B
:1025F00080BD00BF0000002083DE1B4300030050AD
:102600000001005007C0F0FF80B584B000AF7860D3
:102610000023FB737B681B689B6803F00403002B9B
:1026200040F09C807B6893F83C30012B01D1022361
:1026300097E07B68012283F83C20786800F030FD49
:102640000346FB73FB7B002B40F083807B681B6C95
:1026500023F4706323F0010343F480727B681A64EF
:10266000424B9B6803F01F03002B04D07B681B6860
:10267000B3F1A04F15D17B681B6C23F480127B68EB
:102680001A647B681B68DB6803F00073002B27D09B
:102690007B681B6C23F4405343F480527B681A64BC
:1026A0001EE07B681B6C43F480127B681A647B68B5
:1026B0001B68B3F1A04F04D07B681B682C4A93427F
:1026C0000ED14FF0A043DB6803F00073002B07D05E
:1026D0007B681B6C23F4405343F480527B681A647C
:1026E0007B681B6C03F48053B3F5805F06D17B6875
:1026F0005B6C23F006027B685A6402E07B68002270
:102700005A647B68002283F83C207B681B681C228B
:102710001A60164B9B6803F01F03002B10D0134B5D
:102720009B6803F01F03052B0AD0104B9B6803F036
:102730001F03092B04D07B681B68B3F1A04F0FD196
:102740007B681B689A687B681B6842F004029A6089
:1027500006E07B68002283F83C2001E00223FB7343
:10276000FB7B18461037BD4680BD00BF00030050FC
:102770000001005080B584B000AF78600023FB7387
:102780007B6893F83C30012B01D1022323E07B6866
:10279000012283F83C206C21786800F04BFD034651
:1027A000FB73FB7B002B11D1786800F0DDFC034646
:1027B000FB73FB7B002B09D17B681B6C23F48853D4
:1027C00023F0010343F001027B681A647B68002256
:1027D00083F83C20FB7B18461037BD4680BD0000C7
:1027E00080B586B000AF7860396000233B617B68BC
:1027F0005B69082B02D108237B612EE05E4BFB60F6
:10280000FB689B6803F01F03002B12D17B681B68D9
:10281000DB6803F00103012B1DD17B681B6C43F0C7
:1028200020027B681A647B68002283F83C20012325
:102830009DE0FB689B6803F44043002B0BD07B6852
:102840001B6C43F020027B681A647B68002283F8CB
:102850003C2001238BE00C237B61474B9B6803F0FA
:102860001F03002B04D07B681B68B3F1A04F04D179
:102870007B681B68DB683B6103E04FF0A043DB68CB
:102880003B61FFF7FFFCB86021E03B68B3F1FF3F1D
:102890001DD03B68002B07D0FFF7F4FC0246BB6855
:1028A000D31A3A689A4212D27B681B681A687B690D
:1028B0001340002B0BD17B681B6C43F004027B6838
:1028C0001A647B68002283F83C2003234FE07B6876
:1028D0001B681A687B691340002BD6D07B681B6C81
:1028E00043F400727B681A647B681B68DB6803F43E
:1028F0004063002B31D13B6903F40053002B2CD1F2
:102900007B681B681B6803F00803082B25D17B68D4
:102910001B689B6803F00403002B12D17B681B6CBF
:1029200023F480727B681A647B681B6C03F4805309
:10293000002B12D17B681B6C43F001027B681A6488
:102940000BE07B681B6C43F020027B681A647B6899
:102950005B6C43F001027B685A643B6903F480437B
:10296000002B03D17B681B687A691A600023184624
:102970001837BD4680BD00BF0003005080B483B04F
:1029800000AF78607B681B681B6C18460C37BD462F
:102990005DF8047B7047000080B49BB000AF7860A6
:1029A0003960002387F867300023BB607B6893F8A9
:1029B0003C30012B01D10223A1E27B68012283F884
:1029C0003C207B681B689B6803F00403002B40F0ED
:1029D00085823B685B68042B1CD87B681B68196B7D
:1029E0003B685A6813465B0013445B001A461F237A
:1029F0009340DB4319403B6818683B685A681346AC
:102A00005B0013445B0000FA03F27B681B680A4317
:102A10001A6363E03B685B68092B1ED87B681B6800
:102A2000596B3B685A6813465B0013445B001E3BBE
:102A30001F2202FA03F3DB4319403B6818683B6826
:102A40005A6813465B0013445B001E3B00FA03F216
:102A50007B681B680A435A6340E03B685B680E2B47
:102A60001ED87B681B68996B3B685A6813465B00ED
:102A700013445B003C3B1F2202FA03F3DB43194083
:102A80003B6818683B685A6813465B0013445B0058
:102A90003C3B00FA03F27B681B680A439A631DE023
:102AA0007B681B68D96B3B685A6813465B0013440C
:102AB0005B005A3B1F2202FA03F3DB4319403B68D9
:102AC00018683B685A6813465B0013445B005A3B26
:102AD00000FA03F27B681B680A43DA637B681B68B1
:102AE0009B6803F00C03002B40F0E5803B681B68FB
:102AF000092B1CD97B681B6899693B681A681346C7
:102B00005B0013441E3B072202FA03F3DB43194028
:102B10003B6898683B681A6813465B0013441E3B89
:102B200000FA03F27B681B680A439A6119E07B682C
:102B30001B6859693B681A6813465B0013440722F7
:102B400002FA03F3DB4319403B6898683B681A6854
:102B500013465B00134400FA03F27B681B680A43C8
:102B60005A613B685A697B681B68DB68DB0803F0C5
:102B700003035B0002FA03F33B663B681B69013BFE
:102B8000032B4FD801A252F823F000BF9D2B000861
:102B9000BF2B0008E12B0008032C00087B681B6892
:102BA0001A6E9C4B13403A68126891063A6E0A43BB
:102BB0001A437B681B6842F000421A667BE07B6820
:102BC0001B685A6E934B13403A68126891063A6E2E
:102BD0000A431A437B681B6842F000425A666AE067
:102BE0007B681B689A6E8B4B13403A68126891069B
:102BF0003A6E0A431A437B681B6842F000429A66A9
:102C000059E07B681B68DA6E824B13403A681268A1
:102C100091063A6E0A431A437B681B6842F00042F1
:102C2000DA6648E07B681B681B6E03F0F8423B687D
:102C30001B689B069A4207D17B681B681A6E7B68EB
:102C40001B6822F000421A667B681B685B6E03F00B
:102C5000F8423B681B689B069A4207D17B681B6859
:102C60005A6E7B681B6822F000425A667B681B68BC
:102C70009B6E03F0F8423B681B689B069A4207D1A3
:102C80007B681B689A6E7B681B6822F000429A661C
:102C90007B681B68DB6E03F0F8423B681B689B0691
:102CA0009A4207D17B681B68DA6E7B681B6822F04A
:102CB0000042DA6600BF7B681B689B6803F0030371
:102CC000012B08D17B681B681B6803F00103012BF3
:102CD00001D1012300E00023002B40F00A813B6872
:102CE000DB68012B0FD07B681B68D3F8B0103B6802
:102CF0001B68012202FA03F3DA437B681B680A406F
:102D0000C3F8B02049E07B681B68D3F8B0103B687B
:102D10001B6801229A407B681B680A43C3F8B020F5
:102D20003B681B68092B1CD97B681B6899693B6849
:102D30001A6813465B0013441B3B072202FA03F395
:102D4000DB4319403B6898683B681A6813465B0090
:102D500013441B3B00FA03F27B681B680A439A6129
:102D60001BE07B681B6859693B681B685A1C13464B
:102D70005B001344072202FA03F3DB4319403B686C
:102D800098683B681B685A1C13465B00134400FAA2
:102D900003F27B681B680A435A611F4BFB653B6863
:102DA0001B68102B05D1FB6D9B6803F40003002BFF
:102DB00015D03B681B68112B05D1FB6D9B6803F098
:102DC0008073002B0BD03B681B68122B40F0918066
:102DD000FB6D9B6803F48003002B40F08A807B68C6
:102DE0001B68B3F1A04F02D10C4BFB6002E04FF027
:102DF000A043FB607B681B689B6803F00303012B07
:102E00000ED17B681B681B6803F00103012B07D1FF
:102E1000012306E000F0FF83000300500001005092
:102E20000023002B50D1FB68002B10D0FB689B685F
:102E300003F00303012B07D1FB681B6803F00103B8
:102E4000012B01D1012300E00023002B3CD13B6882
:102E50001B68102B1DD17B681B68B3F1A04F18D1E4
:102E6000FB6D9B6843F40002FB6D9A60274B1B6867
:102E7000274AA2FB03239A0C13469B0013445B00D2
:102E8000BB6002E0BB68013BBB60BB68002BF9D1B3
:102E90002EE03B681B68112B0BD17B681B68B3F1DC
:102EA000A04F06D1FB6D9B6843F08072FB6D9A606A
:102EB0001EE03B681B68122B1AD1FB6D9B6843F424
:102EC0008002FB6D9A6013E07B681B6C43F020026C
:102ED0007B681A64012387F867300AE07B681B6C03
:102EE00043F020027B681A64012387F8673000E012
:102EF00000BF7B68002283F83C2097F867301846B3
:102F00006C37BD465DF8047B704700BF00000020B1
:102F100083DE1B4380B499B000AF78603960002332
:102F200087F85F307B681B68B3F1A04F02D15A4B22
:102F3000BB6002E04FF0A043BB60BB68002B01D137
:102F40000123A2E07B6893F83C30012B01D10223DE
:102F50009BE07B68012283F83C207B681B689B68B0
:102F600003F00403002B7FD1BB689B6803F00403CC
:102F7000002B79D1494BBB653B681B68002B40D0C7
:102F8000BB6D9B6823F460423B6859687B6893F88B
:102F900030305B030B431A43BB6D9A607B681B6840
:102FA0009B6803F00303012B08D17B681B681B6837
:102FB00003F00103012B01D1012300E00023002BCA
:102FC0005CD1BB689B6803F00303012B07D1BB688E
:102FD0001B6803F00103012B01D1012300E0002352
:102FE000002B4BD1BB6D9B6823F4716323F00F035F
:102FF0003A6811683A6892680A431A43BB6D9A604E
:103000003CE0BB6D9B6823F46042BB6D9A607B68BB
:103010001B689B6803F00303012B08D17B681B68C6
:103020001B6803F00103012B01D1012300E0002301
:10303000002B23D1BB689B6803F00303012B07D14E
:10304000BB681B6803F00103012B01D1012300E0E1
:103050000023002B12D1BB6D9B6823F4716323F016
:103060000F03BA6D936009E07B681B6C43F020028C
:103070007B681A64012387F85F3000E000BF7B683B
:10308000002283F83C2097F85F3018466437BD462D
:103090005DF8047B704700BF000100500003005042
:1030A00080B584B000AF78600023FB607B681B684C
:1030B0009B6803F00303012B08D17B681B681B6826
:1030C00003F00103012B01D1012300E00023002BB9
:1030D00043D17B681B689A68224B1340002B0DD0AC
:1030E0007B681B6C43F010027B681A647B685B6C26
:1030F00043F001027B685A6401232FE07B681B6860
:103100009A687B681B6842F001029A60FFF7BAF880
:10311000F8601BE0FFF7B6F80246FB68D31A022BF3
:1031200014D97B681B681B6803F00103012B0DD0C9
:103130007B681B6C43F010027B681A647B685B6CD5
:1031400043F001027B685A64012307E07B681B6837
:103150001B6803F00103012BDCD100231846103754
:10316000BD4680BD3F00008080B584B000AF786070
:103170000023FB607B681B689B6803F00303012B43
:1031800008D17B681B681B6803F00103012B01D188
:10319000012300E00023002B47D07B681B689B685D
:1031A00003F00D03012B0FD17B681B689A687B68C5
:1031B0001B6842F002029A607B681B6803221A6057
:1031C000FFF760F8F86029E07B681B6C43F01002A1
:1031D0007B681A647B685B6C43F001027B685A640D
:1031E000012323E0FFF74EF80246FB68D31A022BB7
:1031F00014D97B681B689B6803F00103012B0DD178
:103200007B681B6C43F010027B681A647B685B6C04
:1032100043F001027B685A64012307E07B681B6866
:103220009B6803F00103012BDCD000231846103704
:10323000BD4680BD80B586B000AF786039600023A0
:103240007B610023FB6000233B617B681B689B68FC
:1032500003F00C03002B00F09B807B681B68DB688D
:1032600003F00073B3F1007F2AD17B685B7E012BF2
:1032700026D17B681B7E012B22D10C233B6014E0FE
:103280003B69464A93420DD97B681B6C43F01002A0
:103290007B681A647B685B6C43F001027B685A644C
:1032A000012376E03B6901333B617B681B681B6847
:1032B00003F04003402BE3D17B681B6840221A6077
:1032C0003B68602B15D07B681B689B6803F0040388
:1032D000042B0ED17B681B689B6803F00203002B54
:1032E00007D17B681B689A687B681B6842F01002F4
:1032F0009A603B680C2B15D07B681B689B6803F0B9
:103300000803082B0ED17B681B689B6803F002033F
:10331000002B07D17B681B689A687B681B6842F0AA
:1033200020029A603B68602B05D03B686C2B05D16E
:103330000C237B6105E008237B6102E004237B61B1
:1033400000BFFEF79FFFF8601BE0FEF79BFF024601
:10335000FB68D31A0B2B14D97B681B689A687B69AE
:103360001340002B0DD07B681B6C43F010027B6870
:103370001A647B685B6C43F001027B685A6401232A
:1033800007E07B681B689A687B691340002BDCD1DF
:10339000002318461837BD4680BD00BFFF930900C3
:1033A00080B485B000AF78607B6803F00703FB60F2
:1033B0000C4BDB68BB60BA684FF6FF031340BB6081
:1033C000FB681A02BB68134343F0BF6343F4003346
:1033D000BB60044ABB68D36000BF1437BD465DF8CC
:1033E000047B704700ED00E080B400AF044BDB6865
:1033F0001B0A03F007031846BD465DF8047B7047BF
:1034000000ED00E080B483B000AF0346FB7197F994
:103410000730002B0BDBFB7903F01F02074997F9FC
:1034200007305B09012000FA02F241F8232000BFB7
:103430000C37BD465DF8047B704700BF00E100E03B
:1034400080B483B000AF03463960FB7197F9073051
:10345000002B0ADB3B68DAB20C4997F907301201FE
:10346000D2B20B4483F800230AE03B68DAB2084981
:10347000FB7903F00F03043B1201D2B20B441A761E
:1034800000BF0C37BD465DF8047B704700E100E0EB
:1034900000ED00E080B489B000AFF860B9607A60F8
:1034A000FB6803F00703FB61FB69C3F10703042B0F
:1034B00028BF0423BB61FB690433062B02D9FB69D7
:1034C000033B00E000237B614FF0FF32BB6902FA4F
:1034D00003F3DA43BB681A407B699A404FF0FF312F
:1034E0007B6901FA03F3D9437B680B401343184609
:1034F0002437BD465DF8047B7047000080B582B07C
:1035000000AF78607B68013BB3F1807F01D301237A
:103510000FE00A4A7B68013B53600F214FF0FF30F8
:10352000FFF78EFF054B00229A60044B07221A60BA
:10353000002318460837BD4680BD00BF10E000E0FC
:1035400080B582B000AF78607868FFF729FF00BFD0
:103550000837BD4680BD80B586B000AF0346B96070
:103560007A60FB7300237B61FFF73EFF78617A6826
:10357000B9687869FFF78EFF024697F90F30114658
:103580001846FFF75DFF00BF1837BD4680BD80B508
:1035900082B000AF0346FB7197F907301846FFF77A
:1035A00031FF00BF0837BD4680BD80B582B000AF97
:1035B00078607868FFF7A2FF034618460837BD46D3
:1035C00080BD000080B487B000AF78603960002310
:1035D0007B614EE13B681A6801217B6901FA03F3C4
:1035E0001340FB60FB68002B00F040813B685B6888
:1035F00003F00303012B05D03B685B6803F0030372
:10360000022B30D17B689B683B617B695B000322A6
:1036100002FA03F3DB433A6913403B613B68DA6823
:103620007B695B0002FA03F33A6913433B617B68F1
:103630003A699A607B685B683B6101227B6902FAA8
:1036400003F3DB433A6913403B613B685B681B094A
:1036500003F001027B6902FA03F33A6913433B6109
:103660007B683A695A603B685B6803F00303032B8D
:1036700017D07B68DB683B617B695B00032202FA41
:1036800003F3DB433A6913403B613B689A687B690B
:103690005B0002FA03F33A6913433B617B683A69C2
:1036A000DA603B685B6803F00303022B23D17B697C
:1036B000DA087B68083253F822303B617B6903F0FB
:1036C00007039B000F2202FA03F3DB433A6913401E
:1036D0003B613B681A697B6903F007039B0002FAB0
:1036E00003F33A6913433B617B69DA087B6808326C
:1036F000396943F822107B681B683B617B695B007A
:10370000032202FA03F3DB433A6913403B613B684F
:103710005B6803F003027B695B0002FA03F33A691A
:1037200013433B617B683A691A603B685B6803F44A
:103730004033002B00F09A80554B9B69544A43F06C
:1037400001039361524B9B6903F00103BB60BB68AB
:10375000504A7B699B08023352F823303B617B69F6
:1037600003F003039B000F2202FA03F3DB433A69E1
:1037700013403B617B68B3F1904F13D07B68464A9E
:1037800093420DD07B68454A934207D07B68444AF8
:10379000934201D1032306E0052304E0022302E063
:1037A000012300E000237A6902F0030292009340B3
:1037B0003A6913433B6137497B699B0802333A6995
:1037C00041F82320374B9B683B61FB68DB433A6938
:1037D00013403B613B685B6803F48013002B03D00C
:1037E0003A69FB6813433B612E4A3B6993602D4B5A
:1037F000DB683B61FB68DB433A6913403B613B6834
:103800005B6803F40013002B03D03A69FB68134391
:103810003B61244A3B69D360224B5B683B61FB6898
:10382000DB433A6913403B613B685B6803F4003358
:10383000002B03D03A69FB6813433B61194A3B698B
:103840005360184B1B683B61FB68DB433A691340CC
:103850003B613B685B6803F48033002B03D03A691B
:10386000FB6813433B610F4A3B6913607B6901337B
:103870007B613B681A687B6922FA03F3002B7FF4B3
:10388000A9AE00BF00BF1C37BD465DF8047B704782
:1038900000100240000001400004004800080048F9
:1038A000000C00480004014080B485B000AF78608F
:1038B0000B467B807B681A697B881340002B02D003
:1038C0000123FB7301E00023FB73FB7B18461437D5
:1038D000BD465DF8047B704780B483B000AF78606C
:1038E0000B467B8013467B707B78002B03D07A8855
:1038F0007B689A6102E07A887B689A6200BF0C3725
:10390000BD465DF8047B704780B5ADF5007D00AF26
:1039100007F50073A3F5FE73186007F50073A3F5B0
:10392000FE731B68002B02D1012301F023B807F5B9
:103930000073A3F5FE731B681B6803F00103002BE3
:1039400000F07D81BC4B5B6803F00C03042B0CD0B2
:10395000B94B5B6803F00C03082B5CD1B64B5B687A
:1039600003F48033B3F5803F55D14FF40033C7F8EB
:10397000F031D7F8F03193FAA3F3C7F8EC31D7F868
:10398000EC31B3FA83F3DBB25B09DBB243F0010342
:10399000DBB2012B02D1A84B1B6815E04FF40033BA
:1039A000C7F8E831D7F8E83193FAA3F3C7F8E43160
:1039B0004FF40033C7F8E031D7F8E03193FAA3F3BE
:1039C000C7F8DC319C4B5B6A4FF40032C7F8D82152
:1039D000D7F8D82192FAA2F2C7F8D421D7F8D42187
:1039E000B2FA82F2D2B242F02002D2B202F01F0248
:1039F000012101FA02F21340002B00F01F8107F5AC
:103A00000073A3F5FE731B685B68002B40F0168102
:103A1000012300F0AFBF07F50073A3F5FE731B6829
:103A20005B68B3F5803F06D1834B1B68824A43F441
:103A30008033136036E007F50073A3F5FE731B684F
:103A40005B68002B0CD17C4B1B687B4A23F48033D2
:103A50001360794B1B68784A23F48023136021E0BC
:103A600007F50073A3F5FE731B685B68B3F5A02F21
:103A70000CD1714B1B68704A43F4802313606E4B6A
:103A80001B686D4A43F4803313600BE06A4B1B687C
:103A9000694A23F480331360674B1B68664A23F43A
:103AA00080231360644BDB6A23F00F0207F5007379
:103AB000A3F5FE731B689B685F491343CB6207F550
:103AC0000073A3F5FE731B685B68002B59D0FEF7EB
:103AD000D9FBC7F8F8010AE0FEF7D4FB0246D7F895
:103AE000F831D31A642B02D9032300F043BF4FF4FB
:103AF0000033C7F8D031D7F8D03193FAA3F3C7F821
:103B0000CC31D7F8CC31B3FA83F3DBB25B09DBB24B
:103B100043F00103DBB2012B02D1474B1B6815E0D8
:103B20004FF40033C7F8C831D7F8C83193FAA3F37C
:103B3000C7F8C4314FF40033C7F8C031D7F8C031EB
:103B400093FAA3F3C7F8BC313B4B5B6A4FF40032E6
:103B5000C7F8B821D7F8B82192FAA2F2C7F8B42171
:103B6000D7F8B421B2FA82F2D2B242F02002D2B235
:103B700002F01F02012101FA02F21340002BABD028
:103B80005DE0FEF77FFBC7F8F8010AE0FEF77AFB7D
:103B90000246D7F8F831D31A642B02D9032300F078
:103BA000E9BE4FF40033C7F8B031D7F8B03193FA1B
:103BB000A3F3C7F8AC31D7F8AC31B3FA83F3DBB277
:103BC0005B09DBB243F00103DBB2012B02D11A4BDC
:103BD0001B6815E04FF40033C7F8A831D7F8A831B7
:103BE00093FAA3F3C7F8A4314FF40033C7F8A03118
:103BF000D7F8A03193FAA3F3C7F89C310E4B5B6A58
:103C00004FF40032C7F89821D7F8982192FAA2F21F
:103C1000C7F89421D7F89421B2FA82F2D2B242F0D6
:103C20002002D2B202F01F02012101FA02F2134077
:103C3000002BABD103E000BF0010024000BF07F52E
:103C40000073A3F5FE731B681B6803F00203002BCF
:103C500000F07D81A64B5B6803F00C03002B0BD0BA
:103C6000A34B5B6803F00C03082B72D1A04B5B687D
:103C700003F48033002B6CD10223C7F89031D7F8BE
:103C8000903193FAA3F3C7F88C31D7F88C31B3FA9B
:103C900083F3DBB25B09DBB243F00103DBB2012B40
:103CA00002D1934B1B6813E00223C7F88831D7F881
:103CB000883193FAA3F3C7F884310223C7F880311F
:103CC000D7F8803193FAA3F3C7F87C31884B5B6A4D
:103CD0000222C7F87821D7F8782192FAA2F2C7F821
:103CE0007421D7F87421B2FA82F2D2B242F02002E3
:103CF000D2B202F01F02012101FA02F21340002B9E
:103D00000AD007F50073A3F5FE731B681B69012B2E
:103D100002D0012300F02EBE754B1B6823F0F80281
:103D200007F50073A3F5FE731B685B69F821C7F8FC
:103D30007011D7F8701191FAA1F1C7F86C11D7F88A
:103D40006C11B1FA81F1C9B28B40694913430B6020
:103D5000FDE007F50073A3F5FE731B681B69002BDC
:103D600000F088800123C7F86831D7F8683193FAEA
:103D7000A3F3C7F86431D7F86431B3FA83F3DBB245
:103D800003F1845303F584139B001A460123136047
:103D9000FEF778FAC7F8F8010AE0FEF773FA024670
:103DA000D7F8F831D31A022B02D9032300F0E2BD71
:103DB0000223C7F86031D7F8603193FAA3F3C7F84C
:103DC0005C31D7F85C31B3FA83F3DBB25B09DBB269
:103DD00043F00103DBB2012B02D1454B1B6813E01A
:103DE0000223C7F85831D7F8583193FAA3F3C7F82C
:103DF00054310223C7F85031D7F8503193FAA3F366
:103E0000C7F84C313A4B5B6A0222C7F84821D7F811
:103E1000482192FAA2F2C7F84421D7F84421B2FA15
:103E200082F2D2B242F02002D2B202F01F0201218D
:103E300001FA02F21340002BAFD02D4B1B6823F088
:103E4000F80207F50073A3F5FE731B685B69F821A0
:103E5000C7F84011D7F8401191FAA1F1C7F83C1109
:103E6000D7F83C11B1FA81F1C9B28B402049134314
:103E70000B606CE00123C7F83831D7F8383193FA7A
:103E8000A3F3C7F83431D7F83431B3FA83F3DBB294
:103E900003F1845303F584139B001A460023136037
:103EA000FEF7F0F9C7F8F8010AE0FEF7EBF9024671
:103EB000D7F8F831D31A022B02D9032300F05ABDE8
:103EC0000223C7F83031D7F8303193FAA3F3C7F89B
:103ED0002C31D7F82C31B3FA83F3DBB25B09DBB2B8
:103EE00043F00103DBB2012B04D1014B1B6815E049
:103EF000001002400223C7F82831D7F8283193FA7E
:103F0000A3F3C7F824310223C7F82031D7F82031B2
:103F100093FAA3F3C7F81C31C84B5B6A0222C7F8B7
:103F20001821D7F8182192FAA2F2C7F81421D7F86D
:103F30001421B2FA82F2D2B242F02002D2B202F0DE
:103F40001F02012101FA02F21340002BADD107F547
:103F50000073A3F5FE731B681B6803F00803002BB6
:103F600000F0108107F50073A3F5FE731B689B69D1
:103F7000002B79D00123C7F81031D7F8103193FA0C
:103F8000A3F3C7F80C31D7F80C31B3FA83F3DBB2E3
:103F90001A46AB4B13449B001A4601231360FEF7ED
:103FA00071F9C7F8F8010AE0FEF76CF90246D7F894
:103FB000F831D31A022B02D9032300F0DBBC022311
:103FC000C7F80831D7F8083193FAA3F3C7F80431DA
:103FD00007F50073A3F5807302221A6007F50073DA
:103FE000A3F580731B6893FAA3F207F50073A3F59A
:103FF00082731A6007F50073A3F5847302221A60B6
:1040000007F50073A3F584731B6893FAA3F207F511
:104010000073A3F586731A60884B5A6A07F500731C
:10402000A3F588730221196007F50073A3F588735F
:104030001B6893FAA3F107F50073A3F58A7319605F
:1040400007F50073A3F58A731B68B3FA83F3DBB239
:1040500043F06003DBB203F01F03012101FA03F315
:104060001340002BA0D08DE007F50073A3F58C73EF
:1040700001221A6007F50073A3F58C731B6893FA8D
:10408000A3F207F50073A3F58E731A6007F50073AA
:10409000A3F58E731B68B3FA83F3DBB21A46684B41
:1040A00013449B001A4600231360FEF7EBF8C7F891
:1040B000F8010AE0FEF7E6F80246D7F8F831D31A1D
:1040C000022B02D9032300F055BC07F50073A3F5BA
:1040D000907302221A6007F50073A3F590731B68B2
:1040E00093FAA3F207F50073A3F592731A6007F52C
:1040F0000073A3F5947302221A6007F50073A3F509
:1041000094731B6893FAA3F207F50073A3F59673F3
:104110001A6007F50073A3F5987302221A6007F579
:104120000073A3F598731B6893FAA3F207F5007365
:10413000A3F59A731A60414B5A6A07F50073A3F509
:104140009C730221196007F50073A3F59C731B682B
:1041500093FAA3F107F50073A3F59E73196007F5B1
:104160000073A3F59E731B68B3FA83F3DBB243F0CD
:104170006003DBB203F01F03012101FA03F31340D4
:10418000002B97D107F50073A3F5FE731B681B681E
:1041900003F00403002B00F0A181002387F8FF3116
:1041A000264BDB6903F08053002B16D1234BDB69D0
:1041B000224A43F08053D361204BDB6903F08052E5
:1041C00007F50073A3F5FC731A6007F50073A3F5F8
:1041D000FC731B68012387F8FF311A4B1B6803F43B
:1041E0008073002B1AD1174B1B68164A43F4807357
:1041F0001360FEF747F8C7F8F80109E0FEF742F848
:104200000246D7F8F831D31A642B01D90323B1E35E
:104210000C4B1B6803F48073002BEFD007F5007381
:10422000A3F5FE731B68DB68012B0DD1034B1B6AE2
:10423000024A43F0010313623CE000BF0010024059
:10424000208190100070004007F50073A3F5FE7305
:104250001B68DB68002B0CD1C14B1B6AC04A23F0E2
:1042600001031362BE4B1B6ABD4A23F004031362B1
:1042700020E007F50073A3F5FE731B68DB68052BD0
:104280000CD1B74B1B6AB64A43F004031362B44B1C
:104290001B6AB34A43F0010313620BE0B04B1B6A85
:1042A000AF4A23F001031362AD4B1B6AAC4A23F003
:1042B0000403136207F50073A3F5FE731B68DB6844
:1042C000002B00F08180FDF7DDFFC7F8F8010BE05F
:1042D000FDF7D8FF0246D7F8F831D31A41F28832F9
:1042E000934201D9032345E307F50073A3F5A073B7
:1042F00002221A6007F50073A3F5A0731B6893FAF6
:10430000A3F207F50073A3F5A2731A6007F5007313
:10431000A3F5A47302221A6007F50073A3F5A47332
:104320001B6893FAA3F207F50073A3F5A6731A604E
:1043300007F50073A3F5A6731B68B3FA83F3DBB22A
:104340005B09DBB243F00203DBB2022B02D1844BE8
:104350001B6A13E007F50073A3F5A87302221A6025
:1043600007F50073A3F5A8731B6893FAA3F207F58A
:104370000073A3F5AA731A60794B5B6A07F50072A4
:10438000A2F5AC720221116007F50072A2F5AC72C1
:10439000126892FAA2F107F50072A2F5AE721160EE
:1043A00007F50072A2F5AE721268B2FA82F2D2B2CA
:1043B00042F04002D2B202F01F02012101FA02F2E1
:1043C0001340002B84D07FE0FDF75CFFC7F8F801B5
:1043D0000BE0FDF757FF0246D7F8F831D31A41F248
:1043E0008832934201D90323C4E207F50073A3F591
:1043F000B07302221A6007F50073A3F5B0731B684F
:1044000093FAA3F207F50073A3F5B2731A6007F5E8
:104410000073A3F5B47302221A6007F50073A3F5C5
:10442000B4731B6893FAA3F207F50073A3F5B67390
:104430001A6007F50073A3F5B6731B68B3FA83F32C
:10444000DBB25B09DBB243F00203DBB2022B02D129
:10445000434B1B6A13E007F50073A3F5B873022200
:104460001A6007F50073A3F5B8731B6893FAA3F2FB
:1044700007F50073A3F5BA731A60394B5B6A07F549
:104480000072A2F5BC720221116007F50072A2F55C
:10449000BC72126892FAA2F107F50072A2F5BE7220
:1044A000116007F50072A2F5BE721268B2FA82F2CC
:1044B000D2B242F04002D2B202F01F02012101FA50
:1044C00002F21340002B84D197F8FF31012B05D164
:1044D000234BDB69224A23F08053D36107F5007335
:1044E000A3F5FE731B68DB69002B00F042821C4BB6
:1044F0005B6803F00C03082B00F0138207F50073D0
:10450000A3F5FE731B68DB69022B40F0628107F59F
:104510000073A3F5C0734FF080721A6007F5007343
:10452000A3F5C0731B6893FAA3F207F50073A3F514
:10453000C2731A6007F50073A3F5C2731B68B3FA60
:1045400083F3DBB203F1845303F584139B001A4613
:1045500000231360FDF796FEC7F8F8010CE000BFDA
:1045600000100240FDF78EFE0246D7F8F831D31A4C
:10457000022B01D90323FDE107F50073A3F5C473F2
:104580004FF000721A6007F50073A3F5C4731B683F
:1045900093FAA3F207F50073A3F5C6731A6007F543
:1045A0000073A3F5C6731B68B3FA83F3DBB25B0930
:1045B000DBB243F00103DBB2012B02D1B04B1B682D
:1045C00027E007F50073A3F5C8734FF000721A6077
:1045D00007F50073A3F5C8731B6893FAA3F207F5F8
:1045E0000073A3F5CA731A6007F50073A3F5CC73C3
:1045F0004FF000721A6007F50073A3F5CC731B68C7
:1046000093FAA3F207F50073A3F5CE731A609C4BDF
:104610005B6A07F50072A2F5D0724FF0007111606D
:1046200007F50072A2F5D072126892FAA2F107F5AE
:104630000072A2F5D272116007F50072A2F5D27273
:104640001268B2FA82F2D2B242F02002D2B202F082
:104650001F02012101FA02F21340002B82D1884B84
:104660005B6823F4741207F50073A3F5FE731B68EF
:10467000596A07F50073A3F5FE731B681B6A0B43A9
:104680007F4913434B6007F50073A3F5D4734FF0D4
:1046900080721A6007F50073A3F5D4731B6893FA50
:1046A000A3F207F50073A3F5D6731A6007F500733C
:1046B000A3F5D6731B68B3FA83F3DBB203F184531B
:1046C00003F584139B001A4601231360FDF7DAFDFE
:1046D000C7F8F80109E0FDF7D5FD0246D7F8F83133
:1046E000D31A022B01D9032344E107F50073A3F584
:1046F000D8734FF000721A6007F50073A3F5D873F2
:104700001B6893FAA3F207F50073A3F5DA731A6036
:1047100007F50073A3F5DA731B68B3FA83F3DBB212
:104720005B09DBB243F00103DBB2012B02D1544B36
:104730001B6827E007F50073A3F5DC734FF00072E8
:104740001A6007F50073A3F5DC731B6893FAA3F2F4
:1047500007F50073A3F5DE731A6007F50073A3F580
:10476000E0734FF000721A6007F50073A3F5E07371
:104770001B6893FAA3F207F50073A3F5E2731A60BE
:104780003F4B5B6A07F50072A2F5E4724FF00071CF
:10479000116007F50072A2F5E472126892FAA2F1B4
:1047A00007F50072A2F5E672116007F50072A2F536
:1047B000E6721268B2FA82F2D2B242F02002D2B2AB
:1047C00002F01F02012101FA02F21340002B82D0F5
:1047D000CFE007F50073A3F5E8734FF080721A601D
:1047E00007F50073A3F5E8731B6893FAA3F207F5C6
:1047F0000073A3F5EA731A6007F50073A3F5EA7373
:104800001B68B3FA83F3DBB203F1845303F584131B
:104810009B001A4600231360FDF734FDC7F8F8012A
:1048200009E0FDF72FFD0246D7F8F831D31A022B25
:1048300001D903239EE007F50073A3F5EC734FF055
:1048400000721A6007F50073A3F5EC731B6893FA06
:10485000A3F207F50073A3F5EE731A6007F5007372
:10486000A3F5EE731B68B3FA83F3DBB25B09DBB22B
:1048700043F00103DBB2012B04D1014B1B6829E09B
:104880000010024007F50073A3F5F0734FF00072BB
:104890001A6007F50073A3F5F0731B6893FAA3F28F
:1048A00007F50073A3F5F2731A6007F50073A3F51B
:1048B000F4734FF000721A6007F50073A3F5F473F8
:1048C0001B6893FAA3F207F50073A3F5F6731A6059
:1048D0002B4B5B6A07F50072A2F5F8724FF000717E
:1048E000116007F50072A2F5F872126892FAA2F14F
:1048F00007F50072A2F5FA72116007F50072A2F5D1
:10490000FA721268B2FA82F2D2B242F02002D2B245
:1049100002F01F02012101FA02F21340002B80D1A4
:1049200027E007F50073A3F5FE731B68DB69012B15
:1049300001D101231EE0124B5B68C7F8F431D7F8B0
:10494000F43103F4803207F50073A3F5FE731B689E
:104950001B6A9A420BD1D7F8F43103F4701207F5B1
:104960000073A3F5FE731B685B6A9A4201D00123B2
:1049700000E00023184607F50077BD4680BD00BF64
:104980000010024080B59EB000AF7860396000230F
:104990007B677B68002B01D1012362E1904B1B6890
:1049A00003F007033A689A4210D98D4B1B6823F035
:1049B00007028B493B6813430B60894B1B6803F06C
:1049C00007033A689A4201D001234AE17B681B68D9
:1049D00003F00203002B08D0824B5B6823F0F00247
:1049E0007B689B687F4913434B607B681B6803F0BF
:1049F0000103002B00F0DC807B685B68012B3CD15D
:104A00004FF400333B673B6F93FAA3F3FB66FB6EF7
:104A1000B3FA83F3DBB25B09DBB243F00103DBB231
:104A2000012B02D16F4B1B680FE04FF40033BB66C4
:104A3000BB6E93FAA3F37B664FF400333B663B6E89
:104A400093FAA3F3FB65674B5B6A4FF40032BA65D8
:104A5000BA6D92FAA2F27A657A6DB2FA82F2D2B2A5
:104A600042F02002D2B202F01F02012101FA02F24A
:104A70001340002B7BD10123F3E07B685B68022BA2
:104A80003CD14FF000733B653B6D93FAA3F3FB649D
:104A9000FB6CB3FA83F3DBB25B09DBB243F00103D7
:104AA000DBB2012B02D14F4B1B680FE04FF00073BC
:104AB000BB64BB6C93FAA3F37B644FF000733B645D
:104AC0003B6C93FAA3F3FB63464B5B6A4FF00072B7
:104AD000BA63BA6B92FAA2F27A637A6BB2FA82F292
:104AE000D2B242F02002D2B202F01F02012101FA3A
:104AF00002F21340002B3AD10123B2E002233B63C0
:104B00003B6B93FAA3F3FB62FB6AB3FA83F3DBB26A
:104B10005B09DBB243F00103DBB2012B02D1314B65
:104B20001B680DE00223BB62BB6A93FAA3F37B62AE
:104B300002233B623B6A93FAA3F3FB61294B5B6A56
:104B40000222BA61BA6992FAA2F27A617A69B2FA79
:104B500082F2D2B242F02002D2B202F01F02012150
:104B600001FA02F21340002B01D1012379E01D4B21
:104B70005B6823F003027B685B681A4913434B6050
:104B8000FDF780FB78670AE0FDF77CFB02467B6F50
:104B9000D31A41F28832934201D9032361E0114BC9
:104BA0005B6803F00C027B685B689B009A42EBD168
:104BB0000B4B1B6803F007033A689A4214D2084B68
:104BC0001B6823F0070206493B6813430B60044B44
:104BD0001B6803F007033A689A4205D0012340E0BE
:104BE00000200240001002407B681B6803F00403B1
:104BF000002B08D01D4B5B6823F4E0627B68DB6808
:104C00001A4913434B607B681B6803F00803002BB1
:104C100009D0164B5B6823F460527B681B69DB008C
:104C2000124913434B6000F029F801460F4B5B68B3
:104C300003F0F003F0223A613A6992FAA2F2FA60C4
:104C4000FA68B2FA82F2D2B2D340094AD35C21FAAE
:104C500003F3084A1360084B1B681846FDF7CEFAA9
:104C6000002318467837BD4680BD00BF00100240C3
:104C700018990008000000200400002080B48BB0C8
:104C800000AF0023FB610023BB6100237B62002394
:104C90007B6100233B62294B5B68FB61FB6903F08E
:104CA0000C03042B02D0082B03D03CE0244B3B62C6
:104CB0003CE0FB6903F470134FF47012BA60BA68F9
:104CC00092FAA2F27A607A68B2FA82F2D2B2D34051
:104CD0001C4AD35C7B61194BDB6A03F00F030F2284
:104CE0003A613A6992FAA2F2FA60FA68B2FA82F28A
:104CF000D2B2D340144AD35CBB61FB6903F4803366
:104D0000002B08D00E4ABB69B2FBF3F27B6902FBB1
:104D100003F37B6204E07B690C4A02FB03F37B62D2
:104D20007B6A3B6202E0064B3B6200BF3B6A18466F
:104D30002C37BD465DF8047B704700BF0010024071
:104D400000127A00309900084099000800093D00DF
:104D500080B400AF034B1B681846BD465DF8047B6A
:104D6000704700BF0000002080B582B000AFFFF7A1
:104D7000EFFF01460B4B5B6803F4E0634FF4E06226
:104D80007A607A6892FAA2F23A603A68B2FA82F2EB
:104D9000D2B2D340044AD35C21FA03F31846083751
:104DA000BD4680BD001002402899000880B582B041
:104DB00000AFFFF7CDFF01460B4B5B6803F4605378
:104DC0004FF460527A607A6892FAA2F23A603A68D6
:104DD000B2FA82F2D2B2D340044AD35C21FA03F38E
:104DE00018460837BD4680BD0010024028990008CB
:104DF00080B592B000AF786000233B640023FB6372
:104E0000002387F847307B681B6803F48033002B4E
:104E100000F0CD80864BDB6903F08053002B0ED170
:104E2000834BDB69824A43F08053D361804BDB695B
:104E300003F08053BB60BB68012387F847307D4B8C
:104E40001B6803F48073002B18D17A4B1B68794AD6
:104E500043F480731360FDF715FA386408E0FDF73A
:104E600011FA02463B6CD31A642B01D90323DBE011
:104E7000704B1B6803F48073002BF0D06C4B1B6AE3
:104E800003F44073FB63FB6B002B7DD07B685B6896
:104E900003F44073FA6B9A4276D0654B1B6A23F495
:104EA0004073FB634FF480333B633B6B93FAA3F394
:104EB000FB62FB6AB3FA83F3DBB21A465E4B134420
:104EC0009B001A46012313604FF48033BB63BB6B16
:104ED00093FAA3F37B637B6BB3FA83F3DBB21A46DB
:104EE000554B13449B001A4600231360504AFB6B3A
:104EF0001362FB6B03F00103002B45D0FDF7C2F9F1
:104F000038640AE0FDF7BEF902463B6CD31A41F261
:104F10008832934201D9032386E00223BB62BB6A35
:104F200093FAA3F37B6202233B623B6A93FAA3F3F7
:104F3000FB61FB69B3FA83F3DBB25B09DBB243F0DD
:104F40000203DBB2022B02D1394B1B6A07E00223BA
:104F5000BB61BB6993FAA3F37B61354B5B6A0222A9
:104F60003A613A6992FAA2F2FA60FA68B2FA82F207
:104F7000D2B242F04002D2B202F01F02012101FA85
:104F800002F21340002BBDD0294B1B6A23F4407260
:104F90007B685B68264913430B6297F84730012B07
:104FA00005D1234BDB69224A23F08053D3617B6810
:104FB0001B6803F00103002B08D01D4B1B6B23F073
:104FC00003027B689B681A4913430B637B681B6869
:104FD00003F02003002B08D0154B1B6B23F01002AD
:104FE0007B68DB68124913430B637B681B6803F023
:104FF0008003002B08D00E4BDB6A23F4F8727B6829
:105000001B690B491343CB627B681B6803F4805315
:10501000002B08D0064B1B6B23F480727B685B6906
:10502000034913430B63002318464837BD4680BD30
:1050300000100240007000400081901080B582B0E6
:1050400000AF78607B68002B01D1012349E07B68C9
:1050500093F83D30DBB2002B06D17B68002283F849
:105060003C207868FCF704FE7B68022283F83D2030
:105070007B681A687B6804331946104600F040FDCF
:105080007B68012283F848207B68012283F83E2058
:105090007B68012283F83F207B68012283F840204F
:1050A0007B68012283F841207B68012283F842203B
:1050B0007B68012283F843207B68012283F8442027
:1050C0007B68012283F845207B68012283F8462013
:1050D0007B68012283F847207B68012283F83D200A
:1050E000002318460837BD4680BD80B582B000AFAA
:1050F00078607B68002B01D1012349E07B6893F83D
:105100003D30DBB2002B06D17B68002283F83C20C7
:10511000786800F041F87B68022283F83D207B68C4
:105120001A687B6804331946104600F0E9FC7B6876
:10513000012283F848207B68012283F83E207B68A7
:10514000012283F83F207B68012283F840207B689E
:10515000012283F841207B68012283F842207B688A
:10516000012283F843207B68012283F844207B6876
:10517000012283F845207B68012283F846207B6862
:10518000012283F847207B68012283F83D20002319
:1051900018460837BD4680BD80B483B000AF786044
:1051A00000BF0C37BD465DF8047B704780B584B006
:1051B00000AF786039603B68002B09D17B6893F8B9
:1051C0003E30DBB2012B14BF01230023DBB23CE0F5
:1051D0003B68042B09D17B6893F83F30DBB2012B8D
:1051E00014BF01230023DBB22FE03B68082B09D159
:1051F0007B6893F84030DBB2012B14BF01230023FE
:10520000DBB222E03B680C2B09D17B6893F841307C
:10521000DBB2012B14BF01230023DBB215E03B6896
:10522000102B09D17B6893F84230DBB2012B14BFFD
:1052300001230023DBB208E07B6893F84330DBB244
:10524000012B14BF01230023DBB2002B01D001236B
:1052500088E03B68002B04D17B68022283F83E2063
:1052600023E03B68042B04D17B68022283F83F20B3
:105270001BE03B68082B04D17B68022283F84020A6
:1052800013E03B680C2B04D17B68022283F8412099
:105290000BE03B68102B04D17B68022283F842208C
:1052A00003E07B68022283F843207B681B680122AD
:1052B0003968184600F0DCFF7B681B682B4A934274
:1052C0000ED07B681B682A4A934209D07B681B6812
:1052D000284A934204D07B681B68274A934201D135
:1052E000012300E00023002B07D07B681B685A6C69
:1052F0007B681B6842F400425A647B681B681B4A47
:1053000093420ED07B681B68B3F1804F09D07B6855
:105310001B681A4A934204D07B681B68144A934264
:1053200015D17B681B689A68154B1340FB60FB68BE
:10533000062B15D0FB68B3F5803F11D07B681B6846
:105340001A687B681B6842F001021A6008E07B68FB
:105350001B681A687B681B6842F001021A6000E053
:1053600000BF002318461037BD4680BD002C014009
:10537000004001400044014000480140000400405A
:105380000700010080B582B000AF786039607B68AB
:105390001B6800223968184600F06AFF7B681B68AA
:1053A0003B4A93420ED07B681B683A4A934209D02D
:1053B0007B681B68384A934204D07B681B68374A75
:1053C000934201D1012300E00023002B17D07B681A
:1053D0001B681A6A41F211131340002B0FD17B682E
:1053E0001B681A6A40F244431340002B07D17B68C4
:1053F0001B685A6C7B681B6822F400425A647B6805
:105400001B681A6A41F211131340002B0FD17B68FD
:105410001B681A6A40F244431340002B07D17B6893
:105420001B681A687B681B6822F001021A603B68DF
:10543000002B04D17B68012283F83E2023E03B68E7
:10544000042B04D17B68012283F83F201BE03B68DA
:10545000082B04D17B68012283F8402013E03B68CD
:105460000C2B04D17B68012283F841200BE03B68C0
:10547000102B04D17B68012283F8422003E07B6873
:10548000012283F84320002318460837BD4680BD1B
:10549000002C014000400140004401400048014010
:1054A00080B582B000AF78607B681B681B6903F031
:1054B0000203022B22D17B681B68DB6803F0020326
:1054C000022B1BD17B681B686FF002021A617B689C
:1054D00001221A777B681B689B6903F00303002B8A
:1054E00003D0786800F0EDFA05E0786800F0DFFAA4
:1054F000786800F0F0FA7B6800221A777B681B68F6
:105500001B6903F00403042B22D17B681B68DB6852
:1055100003F00403042B1BD17B681B686FF00402AB
:105520001A617B6802221A777B681B689B6903F407
:105530004073002B03D0786800F0C3FA05E0786868
:1055400000F0B5FA786800F0C6FA7B6800221A7796
:105550007B681B681B6903F00803082B22D17B685A
:105560001B68DB6803F00803082B1BD17B681B68F2
:105570006FF008021A617B6804221A777B681B6847
:10558000DB6903F00303002B03D0786800F099FA7D
:1055900005E0786800F08BFA786800F09CFA7B6888
:1055A00000221A777B681B681B6903F01003102B1D
:1055B00022D17B681B68DB6803F01003102B1BD122
:1055C0007B681B686FF010021A617B6808221A77EB
:1055D0007B681B68DB6903F44073002B03D0786899
:1055E00000F06FFA05E0786800F061FA786800F082
:1055F00072FA7B6800221A777B681B681B6903F0CC
:105600000103012B0ED17B681B68DB6803F00103EB
:10561000012B07D17B681B686FF001021A61786863
:1056200000F03BFA7B681B681B6903F08003802B4A
:105630000ED17B681B68DB6803F08003802B07D1E9
:105640007B681B686FF080021A61786800F026FFA3
:105650007B681B681B6903F48073B3F5807F0ED1F0
:105660007B681B68DB6803F08003802B07D17B68B5
:105670001B686FF480721A61786800F019FF7B680C
:105680001B681B6903F04003402B0ED17B681B682D
:10569000DB6803F04003402B07D17B681B686FF089
:1056A00040021A61786800F020FA7B681B681B6969
:1056B00003F02003202B0ED17B681B68DB6803F00E
:1056C0002003202B07D17B681B686FF020021A6132
:1056D000786800F0D9FE00BF0837BD4680BD0000E5
:1056E00080B586B000AFF860B9607A600023FB75C2
:1056F000FB6893F83C30012B01D10223FFE0FB68EB
:10570000012283F83C207B68142B00F2F08001A278
:1057100052F823F069570008EF580008EF580008C6
:10572000EF580008A9570008EF580008EF58000884
:10573000EF580008EB570008EF580008EF58000832
:10574000EF5800082B580008EF580008EF580008E1
:10575000EF5800086D580008EF580008EF5800088F
:10576000EF580008AD580008FB681B68B968184678
:1057700000F03EFAFB681B689A69FB681B6842F000
:1057800008029A61FB681B689A69FB681B6822F033
:1057900004029A61FB681B689969BB681A69FB6817
:1057A0001B680A439A61A5E0FB681B68B968184644
:1057B00000F0A4FAFB681B689A69FB681B6842F456
:1057C00000629A61FB681B689A69FB681B6822F497
:1057D00080629A61FB681B689969BB681B691A0241
:1057E000FB681B680A439A6184E0FB681B68B96820
:1057F000184600F003FBFB681B68DA69FB681B684E
:1058000042F00802DA61FB681B68DA69FB681B6812
:1058100022F00402DA61FB681B68D969BB681A6967
:10582000FB681B680A43DA6164E0FB681B68B968BF
:10583000184600F061FBFB681B68DA69FB681B68AF
:1058400042F40062DA61FB681B68DA69FB681B6876
:1058500022F48062DA61FB681B68D969BB681B6946
:105860001A02FB681B680A43DA6143E0FB681B68A5
:10587000B968184600F0A4FBFB681B685A6DFB680A
:105880001B6842F008025A65FB681B685A6DFB688A
:105890001B6822F004025A65FB681B68596DBB68DF
:1058A0001A69FB681B680A435A6523E0FB681B689A
:1058B000B968184600F0E2FBFB681B685A6DFB688C
:1058C0001B6842F400625A65FB681B685A6DFB68EE
:1058D0001B6822F480625A65FB681B68596DBB68BF
:1058E0001B691A02FB681B680A435A6502E0012320
:1058F000FB7500BFFB68002283F83C20FB7D184647
:105900001837BD4680BD00BF80B584B000AF786059
:1059100039600023FB737B6893F83C30012B01D185
:105920000223B6E07B68012283F83C207B680222D8
:1059300083F83D207B681B689B68BB60BB6823F4D1
:10594000803323F07703BB60BB6823F47F43BB60E5
:105950007B681B68BA689A603B681B68B3F5005F98
:105960003ED0B3F5005F00F28780B3F5805F00F0B2
:105970008680B3F5805F7FD8702B1AD0702B7BD8D0
:10598000602B50D0602B77D8502B3CD0502B73D845
:10599000402B58D0402B6FD8302B64D0302B6BD895
:1059A000202B60D0202B67D8002B5CD0102B5AD036
:1059B00062E07B6818683B6899683B685A683B6896
:1059C000DB6800F035FC7B681B689B68BB60BB68CC
:1059D00043F07703BB607B681B68BA689A604FE04E
:1059E0007B6818683B6899683B685A683B68DB6865
:1059F00000F01EFC7B681B689A687B681B6842F499
:105A000080429A603CE07B6818683B6859683B6854
:105A1000DB681A4600F092FB7B681B685021184631
:105A200000F0EBFB2CE07B6818683B6859683B682A
:105A3000DB681A4600F0B1FB7B681B6860211846E2
:105A400000F0DBFB1CE07B6818683B6859683B682A
:105A5000DB681A4600F072FB7B681B684021184621
:105A600000F0CBFB0CE07B681A683B681B681946AA
:105A7000104600F0C2FB03E00123FB7300E000BF0F
:105A80007B68012283F83D207B68002283F83C205C
:105A9000FB7B18461037BD4680BD80B483B000AF95
:105AA000786000BF0C37BD465DF8047B704780B45A
:105AB00083B000AF786000BF0C37BD465DF8047B53
:105AC000704780B483B000AF786000BF0C37BD462C
:105AD0005DF8047B704780B483B000AF786000BF8E
